:1000000000000020592D00008931000089310000D6
:1000100089310000893100008931000089310000F8
:1000200089310000893100008931000089310000E8
:1000300089310000893100008931000089310000D8
:1000400089310000893100008931000089310000C8
:1000500089310000893100008931000089310000B8
:1000600089310000893100008931000089310000A8
:100070008931000089310000893100008931000098
:100080008931000089310000893100008931000088
:100090008931000089310000893100008931000078
:1000A0008931000089310000893100008931000068
:1000B0008931000089310000893100008931000058
:1000C0008931000089310000893100008931000048
:1000D0008931000089310000893100008931000038
:1000E0008931000089310000893100008931000028
:1000F0008931000089310000893100008931000018
:100100008931000089310000893100008931000007
:100110008931000089310000893100009D160000FE
:1001200089310000893100008931000089310000E7
:1001300089310000893100008931000089310000D7
:1001400089310000893100008931000089310000C7
:10015000C11600008931000089310000893100009A
:1001600089310000893100008931000089310000A7
:100170008931000089310000893100008931000097
:100180008931000089310000893100008931000087
:100190008931000089310000893100008931000077
:1001A0008931000089310000E11700008931000029
:0C01B00089310000893100008931000015
:1008000081F0004102E000BF83F0004330B54FEAC1
:1008100041044FEA430594EA050F08BF90EA020F2E
:100820001FBF54EA000C55EA020C7FEA645C7FEAC1
:10083000655C00F0E2804FEA5454D4EB5555B8BFE4
:100840006D420CDD2C4480EA020281EA030382EA55
:10085000000083EA010180EA020281EA0303362DE7
:1008600088BF30BD11F0004F4FEA01314FF4801CBA
:100870004CEA113102D0404261EB410113F0004FCC
:100880004FEA03334CEA133302D0524263EB430383
:1008900094EA050F00F0A780A4F10104D5F1200E21
:1008A0000DDB02FA0EFC22FA05F2801841F100017C
:1008B00003FA0EF2801843FA05F359410EE0A5F150
:1008C00020050EF1200E012A03FA0EFC28BF4CF081
:1008D000020C43FA05F3C01851EBE37101F0004537
:1008E00007D54FF0000EDCF1000C7EEB00006EEB44
:1008F0000101B1F5801F1BD3B1F5001F0CD34908CE
:100900005FEA30004FEA3C0C04F101044FEA445224
:1009100012F5800F80F09A80BCF1004F08BF5FEAAB
:10092000500C50F1000041EB045141EA050130BD8B
:100930005FEA4C0C404141EB010111F4801FA4F12E
:100940000104E9D191F0000F04BF01460020B1FA83
:1009500081F308BF2033A3F10B03B3F120020CDABB
:100960000C3208DD02F1140CC2F10C0201FA0CF099
:1009700021FA02F10CE002F11402D8BFC2F1200CFE
:1009800001FA02F120FA0CFCDCBF41EA0C019040B4
:10099000E41AA2BF01EB0451294330BD6FEA0404FD
:1009A0001F3C1CDA0C340EDC04F11404C4F12002E8
:1009B00020FA04F001FA02F340EA030021FA04F3FA
:1009C00045EA030130BDC4F10C04C4F1200220FA51
:1009D00002F001FA04F340EA0300294630BD21FA8F
:1009E00004F0294630BD94F0000F83F4801306BF55
:1009F00081F480110134013D4EE77FEA645C18BF49
:100A00007FEA655C29D094EA050F08BF90EA020FDF
:100A100005D054EA000C04BF1946104630BD91EAD7
:100A2000030F1EBF0021002030BD5FEA545C05D1DA
:100A30004000494128BF41F0004130BD14F5800419
:100A40003CBF01F5801130BD01F0004545F0FE418D
:100A500041F470014FF0000030BD7FEA645C1ABFC2
:100A6000194610467FEA655C1CBF0B46024650EAF9
:100A7000013406BF52EA033591EA030F41F4002125
:100A800030BD00BF90F0000F04BF0021704730B5AB
:100A90004FF4806404F132044FF000054FF0000180
:100AA00050E700BF90F0000F04BF0021704730B541
:100AB0004FF4806404F1320410F0004548BF404216
:100AC0004FF000013EE700BF42004FEAE2014FEA6B
:100AD00031014FEA02701FBF12F07F4393F07F4F46
:100AE00081F06051704792F0000F14BF93F07F4F78
:100AF000704730B54FF4607401F0004521F00041BB
:100B000020E700BF50EA010208BF704730B54FF040
:100B100000050AE050EA010208BF704730B511F045
:100B2000004502D5404261EB41014FF4806404F17D
:100B300032045FEA915C3FF4DCAE4FF003025FEAFF
:100B4000DC0C18BF03325FEADC0C18BF033202EB87
:100B5000DC02C2F1200300FA03FC20FA02F001FAE1
:100B600003FE40EA0E0021FA02F11444C1E600BF80
:100B700070B54FF0FF0C4CF4E06C1CEA11541DBF33
:100B80001CEA135594EA0C0F95EA0C0F00F0DEF8FE
:100B90002C4481EA030621EA4C5123EA4C5350EAE3
:100BA000013518BF52EA033541F4801143F4801334
:100BB00038D0A0FB02CE4FF00005E1FB02E506F0C5
:100BC0000042E0FB03E54FF00006E1FB03569CF01A
:100BD000000F18BF4EF0010EA4F1FF04B6F5007F20
:100BE00064F5407404D25FEA4E0E6D4146EB060692
:100BF00042EAC62141EA55514FEAC52040EA5E501B
:100C00004FEACE2EB4F1FD0C88BFBCF5E06F1ED8C4
:100C1000BEF1004F08BF5FEA500E50F1000041EBFB
:100C2000045170BD06F0004646EA010140EA0200A8
:100C300081EA0301B4EB5C04C2BFD4EB0C0541EACA
:100C4000045170BD41F480114FF0000E013C00F3DF
:100C5000AB8014F1360FDEBF002001F0004170BD03
:100C6000C4F10004203C35DA0C341BDC04F114041C
:100C7000C4F1200500FA05F320FA04F001FA05F2A8
:100C800040EA020001F0004221F0004110EBD37075
:100C900021FA04F642EB06015EEA430E08BF20EAA1
:100CA000D37070BDC4F10C04C4F1200500FA04F344
:100CB00020FA05F001FA04F240EA020001F00041D6
:100CC00010EBD37041F100015EEA430E08BF20EA49
:100CD000D37070BDC4F1200500FA05F24EEA020E91
:100CE00020FA04F301FA05F243EA020321FA04F0C0
:100CF00001F0004121FA04F220EA020000EBD37077
:100D00005EEA430E08BF20EAD37070BD94F0000F76
:100D10000FD101F00046400041EB010111F4801FAA
:100D200008BF013CF7D041EA060195F0000F18BF5B
:100D3000704703F00046520043EB030313F4801F97
:100D400008BF013DF7D043EA0603704794EA0C0F51
:100D50000CEA135518BF95EA0C0F0CD050EA410667
:100D600018BF52EA4306D1D181EA030101F00041E4
:100D70004FF0000070BD50EA410606BF104619460C
:100D800052EA430619D094EA0C0F02D150EA013618
:100D900013D195EA0C0F05D152EA03361CBF104659
:100DA00019460AD181EA030101F0004141F0FE41F8
:100DB00041F470014FF0000070BD41F0FE4141F47C
:100DC000780170BD70B54FF0FF0C4CF4E06C1CEA7C
:100DD00011541DBF1CEA135594EA0C0F95EA0C0F31
:100DE00000F0A7F8A4EB050481EA030E52EA0335EC
:100DF0004FEA013100F088804FEA03334FF080550D
:100E000045EA131343EA12634FEA022245EA111539
:100E100045EA10654FEA00260EF000419D4208BFEA
:100E2000964244F1FD0404F5407402D25B084FEA97
:100E30003202B61A65EB03055B084FEA32024FF443
:100E400080104FF4002CB6EB020E75EB030E22BFA0
:100E5000B61A754640EA0C005B084FEA3202B6EB60
:100E6000020E75EB030E22BFB61A754640EA5C000F
:100E70005B084FEA3202B6EB020E75EB030E22BF9F
:100E8000B61A754640EA9C005B084FEA3202B6EBA0
:100E9000020E75EB030E22BFB61A754640EADC005F
:100EA00055EA060E18D04FEA051545EA16754FEAC1
:100EB00006164FEAC30343EA52734FEAC2025FEADF
:100EC0001C1CC0D111F4801F0BD141EA00014FF06E
:100ED00000004FF0004CB6E711F4801F04BF01433F
:100EE0000020B4F1FD0C88BFBCF5E06F3FF6AFAE5B
:100EF000B5EB030C04BFB6EB020C5FEA500C50F1EB
:100F0000000041EB045170BD0EF0004E4EEA11316D
:100F100014EB5C04C2BFD4EB0C0541EA045170BD74
:100F200041F480114FF0000E013C90E645EA060EB8
:100F30008DE60CEA135594EA0C0F08BF95EA0C0FE6
:100F40003FF43BAF94EA0C0F0AD150EA01347FF42E
:100F500034AF95EA0C0F7FF425AF104619462CE705
:100F600095EA0C0F06D152EA03353FF4FDAE104668
:100F7000194622E750EA410618BF52EA43067FF4B9
:100F8000C5AE50EA41047FF40DAF52EA43057FF449
:100F9000EBAE12E74FEA410212F5001215D211D55D
:100FA0006FF47873B3EB625212D94FEAC12343F066
:100FB000004343EA505311F0004F23FA02F018BFE8
:100FC000404270474FF00000704750EA013005D1B1
:100FD00011F0004008BF6FF0004070474FF0000074
:100FE000704700BF4FEA4102B2F1E04324BFB3F5BE
:100FF000001CDCF1FE5C0DD901F0004C4FEAC00290
:101000004CEA5070B2F1004F40EB830008BF20F073
:101010000100704711F0804F21D113F13872BCBF2D
:1010200001F00040704741F480114FEA5252C2F182
:101030001802C2F1200C10FA0CF320FA02F018BFCB
:1010400040F001004FEAC1234FEAD32303FA0CFC1E
:1010500040EA0C0023FA02F34FEA4303CCE77FEAAD
:10106000625307D150EA01331EBF4FF0FE4040F4F7
:101070004000704701F0004040F0FE4040F40000A6
:10108000704700BF80F0004002E000BF81F00041E7
:1010900042001FBF5FEA410392EA030F7FEA226C1E
:1010A0007FEA236C6AD04FEA1262D2EB1363C1BFAE
:1010B000D218414048404140B8BF5B42192B88BF1D
:1010C000704710F0004F40F4000020F07F4018BF40
:1010D000404211F0004F41F4000121F07F4118BF60
:1010E000494292EA030F3FD0A2F1010241FA03FC08
:1010F00010EB0C00C3F1200301FA03F100F00043F0
:1011000002D5494260EB4000B0F5000F13D3B0F1B7
:10111000807F06D340084FEA310102F10102FE2A26
:1011200051D2B1F1004F40EBC25008BF20F0010096
:1011300040EA03007047490040EB000010F4000F44
:10114000A2F10102EDD1B0FA80FCACF1080CB2EBD7
:101150000C0200FA0CF0AABF00EBC2505242184336
:10116000BCBFD0401843704792F0000F81F40001DB
:1011700006BF80F400000132013BB5E74FEA4103AE
:101180007FEA226C18BF7FEA236C21D092EA030F1A
:1011900004D092F0000F08BF0846704790EA010F94
:1011A0001CBF0020704712F07F4F04D1400028BFC1
:1011B00040F00040704712F100723CBF00F50000A3
:1011C000704700F0004343F0FE4040F400007047D9
:1011D0007FEA226216BF08467FEA23630146420285
:1011E00006BF5FEA412390EA010F40F48000704798
:1011F0004FF0000304E000BF10F0004348BF40423E
:101200005FEA000C08BF704743F0964301464FF079
:1012100000001CE050EA010208BF70474FF00003D5
:101220000AE000BF50EA010208BF704711F0004316
:1012300002D5404261EB41015FEA010C02BF8446E6
:101240000146002043F0B64308BFA3F18053A3F545
:101250000003BCFA8CF2083AA3EBC25310DB01FA8C
:1012600002FC634400FA02FCC2F12002BCF1004F10
:1012700020FA02F243EB020008BF20F001007047A1
:1012800002F1200201FA02FCC2F1200250EA4C00F5
:1012900021FA02F243EB020008BF20EADC7070473B
:1012A0004FF0FF0C1CEAD0521EBF1CEAD15392EA49
:1012B0000C0F93EA0C0F6FD01A4480EA010C400225
:1012C00018BF5FEA41211ED04FF0006343EA50107F
:1012D00043EA5111A0FB01310CF00040B1F5000FC1
:1012E0003EBF490041EAD3715B0040EA010062F170
:1012F0007F02FD2A1DD8B3F1004F40EBC25008BF5A
:1013000020F00100704790F0000F0CF0004C08BF77
:1013100049024CEA502040EA51207F3AC2BFD2F144
:10132000FF0340EAC250704740F400004FF0000352
:10133000013A5DDC12F1190FDCBF00F0004070478C
:10134000C2F10002410021FA02F1C2F1200200FACA
:1013500002FC5FEA310040F1000053EA4C0308BF91
:1013600020EADC70704792F0000F00F0004C02BFE2
:10137000400010F4000F013AF9D040EA0C0093F05D
:10138000000F01F0004C02BF490011F4000F013BB7
:10139000F9D041EA0C018FE70CEAD15392EA0C0F25
:1013A00018BF93EA0C0F0AD030F0004C18BF31F090
:1013B000004CD8D180EA010000F00040704790F066
:1013C000000F17BF90F0004F084691F0000F91F00A
:1013D000004F14D092EA0C0F01D142020FD193EAD0
:1013E0000C0F03D14B0218BF084608D180EA010058
:1013F00000F0004040F0FE4040F40000704740F034
:10140000FE4040F4400070474FF0FF0C1CEAD05201
:101410001EBF1CEAD15392EA0C0F93EA0C0F69D05D
:10142000A2EB030280EA010C49024FEA402037D0C8
:101430004FF0805343EA111143EA10130CF00040BF
:101440008B4238BF5B0042F17D024FF4000C8B42AF
:1014500024BF5B1A40EA0C00B3EB510F24BFA3EB8F
:10146000510340EA5C00B3EB910F24BFA3EB91035F
:1014700040EA9C00B3EBD10F24BFA3EBD10340EAB9
:10148000DC001B0118BF5FEA1C1CE0D1FD2A3FF6FF
:1014900050AF8B4240EBC25008BF20F001007047B4
:1014A0000CF0004C4CEA50207F32C2BFD2F1FF0357
:1014B00040EAC250704740F400004FF00003013A88
:1014C00037E792F0000F00F0004C02BF400010F42C
:1014D000000F013AF9D040EA0C0093F0000F01F040
:1014E000004C02BF490011F4000F013BF9D041EA62
:1014F0000C0195E70CEAD15392EA0C0F08D1420295
:101500007FF47DAF93EA0C0F7FF470AF084676E767
:1015100093EA0C0F04D14B023FF44CAF08466EE740
:1015200030F0004C18BF31F0004CCAD130F000420E
:101530007FF45CAF31F000437FF43CAF5FE700BF66
:101540004FEA4002B2F1FE4F0FD34FF09E03B3EBD0
:1015500012620DD94FEA002343F0004310F0004F10
:1015600023FA02F018BF404270474FF00000704766
:1015700012F1610F01D1420205D110F0004008BF05
:101580006FF0004070474FF0000070474FF0FF3C95
:1015900006E000BF4FF0010C02E000BF4FF0010C6D
:1015A0004DF804CD4FEA410C7FEA6C5C4FEA430CE6
:1015B00018BF7FEA6C5C1BD001B050EA410C0CBF35
:1015C00052EA430C91EA030F02BF90EA020F002097
:1015D000704710F1000F91EA030F58BF994208BFFE
:1015E00090422CBFD8176FEAE37040F001007047BB
:1015F0004FEA410C7FEA6C5C02D150EA013C07D112
:101600004FEA430C7FEA6C5CD6D152EA033CD3D05C
:101610005DF8040B704700BF8446104662468C4656
:101620001946634600E000BF01B5FFF7B7FF002889
:1016300048BF10F1000F01BD4DF808EDFFF7F4FFB2
:101640000CBF012000205DF808FB00BF4DF808ED3D
:10165000FFF7EAFF34BF012000205DF808FB00BF60
:101660004DF808EDFFF7E0FF94BF012000205DF882
:1016700008FB00BF4DF808EDFFF7CEFF94BF012037
:1016800000205DF808FB00BF4DF808EDFFF7C4FF30
:1016900034BF012000205DF808FB00BF80B582B098
:1016A00000AF0123BB7172B6BB1D0520194600F0C7
:1016B000C5FD0346FB7162B60837BD4680BD00BF5D
:1016C00080B500AF00F09EF9384BD3F80C3103F031
:1016D0000103002B07D0354B344AD2F80C2142F0DD
:1016E0000102C3F80C21324B1B780133DAB2304BC4
:1016F0001A70304B1B780133DAB22E4B1A702E4B16
:101700001B780133DAB22C4B1A702C4B1B78013347
:10171000DAB22A4B1A702A4B1B8801339AB2284B33
:101720001A80284B1B685A1C264B1A60204B1B78CA
:10173000002B05D01E4B00221A70234B01221A7079
:101740001C4B1B78012B05D91A4B00221A701F4B1A
:1017500001221A70184B1B78022B05D9164B002258
:101760001A701B4B01221A70144B1B78032B05D9DE
:10177000124B00221A70174B01221A70104B1B8853
:10178000132B05D90E4B00221A80134B01221A800D
:101790000C4B1B68C72B05D90A4B00221A600F4B54
:1017A00001221A6000F040F980BD00BF00700340C4
:1017B0008C00FF1F8D00FF1F8E00FF1F8F00FF1F7B
:1017C0009000FF1F9400FF1FF100FF1F3601FF1F55
:1017D0001C01FF1F2001FF1F2C01FF1F3C01FF1FE9
:1017E00080B483B000AF0123FB711F4BD3F8A0205E
:1017F000FB79012101FA03F31340002B11D01A4B9E
:10180000194AD2F8A010FA79012000FA02F20A432C
:10181000C3F8A020154B1B889BB201339AB2134B1F
:101820001A800223FB71104BD3F8A020FB79012111
:1018300001FA03F31340002B11D00B4B0A4AD2F8E4
:10184000A010FA79012000FA02F20A43C3F8A0209E
:10185000074B1B889BB201339AB2054B1A800C3799
:10186000BD465DF8047B704700C00440E400FF1FE4
:10187000E600FF1FB0B586B000AF72B640F203308D
:10188000002100F013F94FF44170002100F00EF92F
:1018900005204FF4E13100F0BBFB00204A4900F085
:1018A000DFFE002000F0D6F8012000F0D3F800F0B1
:1018B0001BF9464B00221A80454B32221A80454BB9
:1018C000454A1A60454B464A1A60464B00221A6048
:1018D000454B00221A60454B00221A60002000F0A0
:1018E0000DFF052000F0E2FC62B67B6901337B61ED
:1018F0007A693F4B9A4205D900237B6140F203305D
:1019000000F0E6F83B4B1B78012B5CD1394B0022F1
:101910001A70394B1B7807F110021046194600F077
:10192000E9F803461A46344B1A7007F1100107F123
:101930000C0207F10803084611461A4600F0F4FAB3
:1019400007F10C0107F108023B46084611461A460A
:1019500000F0F2F83B681846FFF7F2FD0346DBB2F1
:101960000520194600F038FCBB681846FFF7ACF8B4
:1019700002460B461046194601F05EFC02460B4635
:10198000104619464FF000021C4BFFF7F1F80246D3
:101990000B4614461D461A4B1B681846FFF794F871
:1019A00002460B4620462946FFF70CFA02460B4634
:1019B00010461946FFF7EEFA0346DBB2052019463A
:1019C00000F00AFC91E790E780A90300EA00FF1FFE
:1019D0001201FF1F5C01FF1F6F12033C0C01FF1F70
:1019E0000AD7A33BF400FF1FEC00FF1F2801FF1FD5
:1019F00060E31600F100FF1F0801FF1F0080664032
:101A00000000FF1F80B400AF064B1B68002B00D105
:101A100072B6044B1B685A1C024B1A60BD465DF837
:101A2000047B70479800FF1F80B400AF084B1B6811
:101A3000002B09D0064B1B685A1E054B1A60044B3D
:101A40001B68002B00D162B6BD465DF8047B704771
:101A50009800FF1F80B582B000AF0346FB71FB7991
:101A6000002B0ED1002000214FF47A72002300F0E9
:101A70003DFC002001214FF47A72002300F036FC77
:101A800010E0FB79012B0DD1002002214FF47A7276
:101A9000002300F02BFC002003214FF47A72002376
:101AA00000F024FC0837BD4680BD00BF80B582B081
:101AB00000AF02460B46FA807B71FA887B791046AC
:101AC00001211A4600F06AFE0837BD4680BD00BFFE
:101AD00080B582B000AF0346FB80FB88184600F05B
:101AE000EDFE0837BD4680BD80B500AF012000F097
:101AF00009FF80BD90B583B000AF78600B46FB70E6
:101B000001200A210C22102300F0D2FF03461A46BE
:101B10007B681A807B689C1C01200C210C221023FE
:101B200000F0C6FF03462380FB781033DBB2184673
:101B30000C37BD4690BD00BFB0B586B000AFF860B1
:101B4000B9607A60964B7B617B681C68FB681A6899
:101B5000944B1B6810461946FFF798FA034618463F
:101B60007969FFF79DFB034620461946FFF790FA77
:101B700003461A467B681A608B4B5B681846FEF773
:101B8000A3FF02460B4682A1D1E90001FEF73CFE0D
:101B900002460B4614461D46834B9B681846FEF7CB
:101BA00093FF02460B4620462946FEF72DFE0246CD
:101BB0000B4610461946FFF715FA02467B4B1A6092
:101BC000794BDB6883F00042784B5A60764BDB68D8
:101BD00083F00042754B9A60744B754ADA60724B21
:101BE0001C68724B1B6818467969FFF759FB03465E
:101BF00020461946FFF74CFA03461A466A4B1A600C
:101C0000694B5C68694B5B6818467969FFF748FB6C
:101C1000034620461946FFF73BFA03461A46624B35
:101C20005A60614B9C68614B9B6818467969FFF765
:101C300037FB034620461946FFF72AFA03461A46A1
:101C4000594B9A60584BDC68584BDB6818467969E9
:101C5000FFF726FB034620461946FFF719FA03460D
:101C60001A46514BDA60BB681B681846FEF72CFF1A
:101C700002460B461046194601F0DEFA02460B46B4
:101C8000104619464FF000024A4BFEF771FF02461C
:101C90000B4614461D46484B1B681846FEF714FFBA
:101CA00002460B4620462946FFF78CF802460B46B3
:101CB00014461D467B681B681846FEF705FF024662
:101CC0000B4620462946FEF79FFD02460B4610466E
:101CD0001946FFF787F90246384B1A6001235BB2B9
:101CE0001846FFF789FA02462F4B1B681046194623
:101CF000FFF7D6FA03461A46314B1A6001235BB24E
:101D00001846FFF779FA0246274B9B68104619469A
:101D1000FFF7C6FA03461A462A4B1A6001235BB244
:101D20001846FFF769FA0246254B1B68104619460C
:101D3000FFF7B6FA03461846FEF7C6FE02460B4604
:101D40001046194614A3D3E90023FEF75FFD0246AF
:101D50000B4610461946FFF745F902461A4B1A6022
:101D6000174B1A68184B1B6810461946FFF74CFBB7
:101D700003461A46154B1A60124B1A68124B1B6821
:101D800010461946FFF740FB22E000BFAFF300808A
:101D9000BBBDD7D9DF7CDB3D2D431CEBE2361A3FC0
:101DA0000AD7A33B9C00FF1F0800FF1FA000FF1FD6
:101DB000BD378635008066400400FF1FB000FF1F5E
:101DC000B400FF1FB800FF1FBC00FF1FC000FF1FB3
:101DD00003461A464B4B1A604B4B1A684B4B1A6022
:101DE00001235BB21846FFF707FA0246484B5B68CF
:101DF00010461946FFF754FA03461A46454B1A6037
:101E0000434B1C68444B1A68404B1B6810461946EC
:101E1000FFF746FA034620461946FFF737F903460F
:101E20001A463B4B1A603A4B5C683B4B1A68394B7D
:101E30001B6810461946FFF733FA03462046194639
:101E4000FFF724F903461A46314B5A60304B9C6821
:101E50002C4B1A682D4B1B6810461946FFF720FAC9
:101E6000034620461946FFF711F903461A46284B48
:101E70009A60274BDC68234B1A68264B1B68104678
:101E80001946FFF70DFA034620461946FFF7FEF8FC
:101E900003461A461E4BDA607B681C681E4B1A68A4
:101EA0001E4B1B6810461946FFF7FAF903462046F9
:101EB0001946FFF7EDF803461A467B681A60114B86
:101EC0001A68164B1B6810461946FFF7E9F90346D6
:101ED0001A46134B1B6810461946FFF7D9F80346FC
:101EE0001A460F4B1A607B681C1DFB681A680C4B66
:101EF0001B6810461946FFF7C9F8034623601837D8
:101F0000BD46B0BDC400FF1FB400FF1FC800FF1FC7
:101F10000800FF1FCC00FF1FC000FF1FB000FF1F05
:101F20009C00FF1FAFF30080B0B584B000AFF86035
:101F3000B9607A60FB681B88A3F237731846FEF716
:101F4000B1FD02460B461046194629A3D3E90023EA
:101F5000FEF70EFE02460B46104619464FF00002F1
:101F6000294BFEF72FFF02460B46144683F000452F
:101F70002046294620A3D3E90023FEF723FF02468B
:101F80000B4610461946FFF72DF802467B681A608B
:101F9000FB6802331B88A3F2FD631846FEF782FD3F
:101FA00002460B461046194611A3D3E90023FEF75B
:101FB000DFFD02460B46104619464FF00002124B59
:101FC000FEF700FF02460B46104619460CA3D3E964
:101FD0000023FEF7F7FE02460B4610461946FFF7B0
:101FE00001F80246BB681A601037BD46B0BD00BF9D
:101FF0006666666666660A409A9999999999E93F74
:10200000F88903E8F7FD6B3F0000B040AFF30080B4
:1020100090B486B000AF03463960FB71FA79684B23
:1020200053F822303B61FB79052B75D801A252F899
:1020300023F000BF4D200000772000009120000019
:10204000AB200000D5200000EF2000005D4B4FF4D6
:102050000072DA615B4B4FF400729A615A495A4B35
:1020600003F5815314331B6843F4806201F58153F7
:1020700014331A6052E05449534B03F5815314331F
:102080001B6843F4006201F5815314331A6045E084
:102090004D494D4B03F5815314331B6843F4805273
:1020A00001F5815314331A6038E0484B4FF4407205
:1020B000DA62464B4FF440729A624349424B03F551
:1020C000815314331B6843F4005201F581531433D8
:1020D0001A6023E03C493C4B03F5815308331B68ED
:1020E00043F4806201F5815308331A6016E0384BDF
:1020F0004FF440721A62364B4FF440725A623249C2
:10210000314B03F5815308331B6843F4006201F53A
:10211000815308331A6001E001234BE03B69DB780F
:10212000DBB223F00C03DAB23B69DA703B690022C0
:102130009A70FB79002B02D0FB79012B02D1254B41
:102140007B6102E04BF680337B617B694FF47A72EE
:1021500002FB03F23B681B01B2FBF3F39CB23B6949
:102160001B78DBB223F01F03FB73234603F4F85301
:102170001B12DBB203F01F03DAB2FB7B1343DAB2AC
:102180003B691A70E2B23B695A703B6900229A704F
:102190003B6900229A713B691F221A713B69002238
:1021A0005A713B69DB78DBB243F00C03DAB23B696E
:1021B000DA70002318461837BD4690BC704700BF40
:1021C0008039000000C004400070044000A00440BA
:1021D00000D004400077010080B485B000AF024613
:1021E0000B46FA71BB71FA79134B53F82230BB607E
:1021F0000023FB600DE0BB681B79DBB2DBB25BB296
:10220000002B03DABB68BA79DA7107E0FB680133A7
:10221000FB60FA684FF6BA339A42ECD9FA684FF687
:10222000BA339A4201D9012300E00023184614373B
:10223000BD465DF8047B70478039000080B487B0EC
:1022400000AF03463960FB71FA79174B53F822301F
:10225000FB6000237B6110E0FB681B79DBB203F0BD
:102260002003002B06D0FB68DB79FB743B6800225F
:102270001A7007E07B6901337B617A694FF6BA33E4
:102280009A42E9D97A694FF6BA339A4204D9FF23C0
:10229000FB743B6801221A70FB7C18461C37BD4654
:1022A0005DF8047B704700BF8039000080B584B0C2
:1022B00000AF0346FB71FA790A4B53F82230FB60FA
:1022C000FB68DB78DBB243F02003DAB2FB68DA703C
:1022D000FB79054AD35C184600F05CFF1037BD4619
:1022E00080BD00BF803900009839000080B487B0FD
:1022F00000AF3A600246FA710A46BA71BB80A54B3C
:102300003B61FB79002B0AD0FB79012B02D0FB79D2
:10231000022B02D1BB79012B01D9012397E13B6943
:102320005A083B689A4201D2022390E13B691A0C99
:102330003B68B2FBF3F3FB810023FB7502E0FB7DFE
:102340000133FB75FA89FB7D42FA03F3002BF6DCBF
:102350003B68B3F57A7F02D2FB7D0133FB75FB7DD1
:102360003A69DA403B68B2FBF3F3FB81BB88FA8938
:10237000013202FB03F3884A82FB03121213DB17BC
:10238000D31ABB81FB79012B00F0B580022B00F042
:10239000E980002B00D009E18049804B03F581538F
:1023A0001C331B6843F0807201F581531C331A60A3
:1023B000BB79072B00F29C8001A252F823F000BFEA
:1023C000E12300000324000025240000472400002E
:1023D000692400008B240000AD240000CF240000FD
:1023E0006E496E4B03F5815318331B6843F400624A
:1023F00001F5815318331A60694B4FF480625A60BB
:1024000078E06649654B03F5815318331B6843F444
:10241000006201F5815318331A60614B4FF48062FA
:102420009A6067E05D495D4B03F5815318331B6883
:1024300043F4006201F5815318331A60584B4FF48E
:102440008062DA6056E05549544B03F581531833E6
:102450001B6843F4006201F5815318331A60504B36
:102460004FF480621A6145E04C494C4B03F58153AF
:1024700018331B6843F4805201F5815318331A60F6
:10248000484B4FF480621A6134E04449434B03F5F2
:10249000815318331B6843F4805201F5815318337C
:1024A0001A60404B4FF480625A6123E03B493B4B3A
:1024B00003F5815318331B6843F4805201F58153AF
:1024C00018331A60374B4FF480629A6112E0334937
:1024D000324B03F5815318331B6843F4805201F5E6
:1024E000815318331A602F4B4FF48062DA6101E098
:1024F0000323ACE05AE02949284B03F581531C33F0
:102500001B6843F0007201F581531C331A60BB79DC
:10251000002B02D0012B11D021E020491F4B03F5E5
:10252000815318331B6843F4007201F5815318334B
:102530001A601D4B4FF440721A6312E01749174B93
:1025400003F5815318331B6843F4007201F581537E
:1025500018331A60144B4FF440725A6301E003239E
:1025600075E023E00D490D4B03F5815310331B68D3
:1025700043F0807201F5815310331A60BB79002B50
:1025800002D0012B02D003E0032360E003235EE0CE
:1025900003235CE040787D01AD8BDB680070044074
:1025A00000B0044000C0044000900440FA792B4B76
:1025B00053F82210B879FA79284B53F82220BB79C6
:1025C0000133DB0013445B6823F00402431CDB008F
:1025D0000B445A60FA79214B53F82220BB7901331E
:1025E000DB00134428225A60FA791C4B53F822303E
:1025F000FA7D02F0070242F028021A60FA79174BBE
:1026000053F822300022DA64FA79144B53F822305E
:10261000FA899A60FA79114B53F822300022DA6471
:10262000FA790E4B53F82210BB79BA890133DB00DB
:102630000B449A60FA79094B53F8223000225A6011
:10264000FA79064B53F822300022DA650023184647
:102650001C37BD465DF8047B704700BF1800FF1FA4
:1026600080B483B000AF03463960FB712149214B30
:1026700003F581531C331B6843F4000201F58153B9
:102680001C331A601C4B1C4A126822F002021A60AA
:10269000194B194A126842F001021A60164AFB7976
:1026A00010331B0113443A681A601349FB7912482E
:1026B000FA791201024402F58472126842F00102B2
:1026C0001B010B4403F584731A600B49FB790A481C
:1026D000FA791201024402F58472126822F00202B1
:1026E0001B010B4403F584731A600C37BD465DF87B
:1026F000047B7047007004400070034080B582B0D6
:1027000000AF0346FB711949FB791848FA791201A9
:10271000024402F58472126842F002021B010B446B
:1027200003F584731A60FB79032B1BD801A252F8BE
:1027300023F000BF452700004D270000552700006B
:102740005D270000442000F025FD0BE0452000F04F
:1027500021FD07E0462000F01DFD03E0472000F0CA
:1027600019FD00BF0837BD4680BD00BF00700340A3
:1027700080B485B000AF0346B9607A60FB81FB8905
:102780001B0A9BB2DAB2BB681A70FB89DAB27B68AB
:102790001A701437BD465DF8047B704780B586B06B
:1027A00000AF13460246FA800A467A713B71F988F7
:1027B00007F10F0207F10E03084611461A46FFF70C
:1027C000D7FFFB7B1A46214B53F822307B61FB7B02
:1027D0001A461F4B53F822303B61BB7B1A46BB7B2A
:1027E00019467B6953F8213023F4E0617B6943F893
:1027F0002210BB7B1A46BB7B19467B6953F82130FC
:1028000043F480717B6943F822107B79012B0FD14F
:102810003B695A69BB7B012101FA03F31A433B6907
:102820005A61FA883B791046194600F013F809E01E
:102830003B695A69BB7B012101FA03F3DB431A4070
:102840003B695A611837BD4680BD00BFA039000002
:10285000B439000080B584B000AF02460B46FA8060
:102860007B71F98807F10B0207F10A03084611464C
:102870001A46FFF77DFFFB7A1A460F4B53F82230BA
:10288000FB607B79012B09D1FB681A68BB7A0121B7
:1028900001FA03F31A43FB681A6009E0FB681A683F
:1028A000BB7A012101FA03F3DB431A40FB681A608B
:1028B0001037BD4680BD00BFB439000080B584B07C
:1028C00000AF0346FB80F98807F10B0207F10A030A
:1028D000084611461A46FFF74BFFFB7A1A46084B8B
:1028E00053F82230FB60FB68DA68BB7A012101FAF9
:1028F00003F31A43FB68DA601037BD4680BD00BFA2
:10290000B439000080B483B000AF78607B68002BDE
:102910000CD11349124B03F581531C331B6843F050
:10292000006201F581531C331A6011E07B68012BB2
:102930000CD10B490A4B03F5815310331B6843F04C
:10294000006201F5815310331A6001E0002300E0BA
:10295000012318460C37BD465DF8047B704700BF65
:102960000070044080B489B000AFF860B9601346CD
:10297000FB710023FB820023FB77FB79083B082BCC
:1029800020D801A252F823F0AD290000C52900008B
:10299000B9290000C5290000B3290000C52900009D
:1029A000C5290000C5290000BF2900000023FB77CE
:1029B0000AE00123FB7707E00223FB7704E003230F
:1029C000FB7701E00023FB77FB68002B02D1174B5C
:1029D000BB6101E0164BBB61FB7F9B0003F00C0366
:1029E00043F05002BB699A60BB690422DA60BB689D
:1029F00003F01F0343F04002BB691A6000BFBB69CC
:102A00001B6803F08003002BF9D0BB691B69FB82B4
:102A1000BB691B6823F08002BB691A60FB8A1846F9
:102A20002437BD465DF8047B704700BF00B003400B
:102A300000B00B4080B586B000AFF860B9601346B7
:102A4000FB71FB79F868B9681A46FFF78BFF0346FC
:102A5000FB82FB79F868B9681A46FFF783FF0346E3
:102A6000BB82FB79F868B9681A46FFF77BFF03461B
:102A70003B82FA8ABB8A9A4205D9FB8A7B82BB8A4F
:102A8000FB827B8ABB823A8ABB8A9A4202D9BB8A82
:102A90007B8208E03A8AFB8A9A4202D93B8A7B828F
:102AA00001E0FB8A7B827B8A18461837BD4680BDD1
:102AB00080B586B000AFF860B960FA71BB710023D1
:102AC0007B610023FB740CE0FB79F868B9681A4657
:102AD000FFF7B0FF03467A6913447B61FB7C013347
:102AE000FB74FA7CBB799A42EED3BB797A69B2FB6C
:102AF000F3F37B617B699BB218461837BD4680BDF6
:102B000080B500AF044A054BD31A044800211A4689
:102B100000F02CFF80BD00BF8801FF1F8C00FF1F4D
:102B200080B400AF0749074B03F5815318331B6886
:102B300043F4785201F5815318331A60BD465DF8AD
:102B4000047B70470070044080B483B000AF0B4B2F
:102B50007B607B684CF22052DA817B684DF628124C
:102B6000DA817B681B889BB223F001039AB27B68F1
:102B70001A800C37BD465DF8047B70470020054085
:102B800080B483B000AF786039600C37BD465DF823
:102B9000047B704780B48BB000AFF860B9607A6096
:102BA0007B687B6204233B620323FB610223BB61DE
:102BB00001237B6101233B61FA68BB689A4202D022
:102BC0007B68002B00D151E04DE0FA69BB681340EF
:102BD000002B19D1FA69FB681340002B14D13A6A13
:102BE0007B6A9A4210D8FB68BA6812681A603B6A1E
:102BF000FA681344FB603B6ABA681344BB603B6AE3
:102C00007A6AD31A7B622EE07A69BB681340002B84
:102C100019D17A69FB681340002B14D1BA697B6A19
:102C20009A4210D8FB68BA6812881A80BB69FA68A1
:102C30001344FB60BB69BA681344BB60BB697A6A22
:102C4000D31A7B620FE0FB68BA6812781A703B698E
:102C5000FA681344FB603B69BA681344BB603B6984
:102C60007A6AD31A7B627B6A002BAED12C37BD46C1
:102C70005DF8047B704700BF90B583B000AF2E4B6A
:102C8000002B00D155E000237B6033E02A497A68AD
:102C900013465B0013449B000B44586826497A682E
:102CA00013465B0013449B000B441968224C7A685E
:102CB00013465B0013449B00234408331B681A46E9
:102CC000FFF768FF1C497A6813465B0013449B00BA
:102CD0000B44596818487A6813465B0013449B00FC
:102CE000034408331B6808461946FFF749FF7B6811
:102CF00001337B6010497A6813465B0013449B00E4
:102D00000B441B68002BC1D10B497A6813465B004A
:102D100013449B000B445B68002BB7D106497A68CB
:102D200013465B0013449B000B4408331B68002BC5
:102D3000ACD10C37BD4690BD643A000080B400AF02
:102D40004FF0E023034AC3F8082DBD465DF8047B2D
:102D5000704700BF0000000080B500AFFFF7F4FE31
:102D6000FFF7DEFEFFF7EAFFFFF7CAFE084B002B76
:102D700001D0FFF781FF0520112100F00DF80020A0
:102D80000449FEF777FD0346184600F0DBFD00BF5F
:102D9000643A0000D000FF1F80B483B000AF024649
:102DA0000B46FA71BB80FB79002B76D1AD4B062226
:102DB0001A70AC4B00225A70AA4BAA4AD278D2B2EF
:102DC00002F01F02D2B2DA70BB88102B16D0112B82
:102DD00002D0082B25D037E0A24BA24AD278D2B23B
:102DE00062F01F02D2B2DA709F4B03F582530433B4
:102DF0009E4A1A609E4B9F4A1A6038E0994B994A46
:102E0000D278D2B262F03F02D2B2DA70964B03F5BA
:102E1000825304334FF089721A60954B964A1A60B8
:102E200025E0904B8F4AD278D2B262F05F02D2B2E4
:102E3000DA708D4B03F5825304334FF480321A60FD
:102E40008B4B8E4A1A6012E0864B864AD278D2B2F9
:102E500062F05F02D2B2DA70834B03F5825304331F
:102E60004FF480321A60824B844A1A6000BF7D4B57
:102E700000221A717B4B00225A7100BF794B9B795B
:102E8000DBB203F01003002BF8D000BF754B9B7929
:102E9000DBB203F00C03002BF8D1FB79062B03D037
:102EA000FB79052B40F05B816F496F4B03F5815334
:102EB00018331B6843F4007201F5815318331A600C
:102EC00040F2FF331B78FF2B14D0664B40F2FF32E9
:102ED00012789A70634B634AD278D2B222F01F0202
:102EE000D1B240F2FE32127802F01F02D2B20A438F
:102EF000D2B2DA705C4B03F5825304335B4A1A603A
:102F00005949594B03F5825308331B6823F00F03CB
:102F100043F0020201F5825308331A605249524BC2
:102F200003F5805304331B6843F4803201F580536A
:102F300004331A604C4B4C4A126842F400221A6067
:102F40004F4A4F4B9B6C23F0807323F4E0639364F0
:102F50004C4B00221A704449434B03F58053043311
:102F60001B6803F0FE0201F5805304331A603D4BE9
:102F700021225A703B4BA8221A7000BF394B9B7913
:102F8000DBB203F01003002BF8D100BF354B9B7967
:102F9000DBB203F00C03082BF8D1FB79062B03D12D
:102FA000304B21221A7105E0FB79052B02D12D4B04
:102FB00038221A71BB88083B0B2B00F2978001A2C4
:102FC00052F823F0F52F000011300000ED30000022
:102FD000ED300000ED300000ED300000ED3000007D
:102FE000ED3000002D300000493000008D30000031
:102FF000A73000001B4B40225A711B4B03F5825334
:1030000004334FF480321A60194B1C4A1A607BE07B
:10301000144B48225A71144B03F5825304334FF07A
:1030200089721A60124B184A1A606DE00D4B4C22DF
:103030005A710D4B03F5825304334FF089721A60B5
:103040000B4B0D4A1A605FE0064B58225A71064B33
:1030500003F582530433054A1A60054B054A1A608A
:1030600052E000BF00400640007004400000130121
:103070006001FF1F00D8B80500A24A04006CDC0202
:1030800000900440005006400090D003364B5A2276
:103090005A71364B03F582530433354A1A60354B67
:1030A000354A1A6030E0FB79062B0CD12E4B0022FA
:1030B0001A712D4B5A225A712C4B03F5825304334B
:1030C0002E4A1A600EE0FB79052B0BD1264B0C2201
:1030D0001A71254B5C225A71244B03F58253043339
:1030E000264A1A60234B264A1A600DE01E4B4022E6
:1030F0005A711E4B03F5825304334FF480321A6029
:103100001C4B204A1A6000BF00BF174B9B79DBB2F3
:1031100003F00C03082BF8D100BF134B9B79DBB2F3
:1031200003F04003002BF8D00F4B28221A7000BF89
:103130000D4B9B79DBB203F00C030C2BF8D100BFD5
:10314000094B9B79DBB203F04003002BF8D0064B10
:10315000054A5279D2B242F02002D2B25A710C37EB
:10316000BD465DF8047B7047004006400070044097
:10317000000013016001FF1F00E1F50500001701C9
:1031800000C2EB0B006CDC0280B400AFBD465DF802
:10319000047B704780B485B000AF0346FB80FB889A
:1031A0005B2B01D95B23FB80FB885B09FB81FB89DF
:1031B000012B16D0022B26D0002B00D035E01D4B62
:1031C000FA8802F01F02012101FA02F2C3F88021FD
:1031D000184BFA8802F01F02012101FA02F21A606C
:1031E00023E0144BFA8802F01F02012101FA02F2D7
:1031F000C3F884210F4BFA8802F01F02012101FA63
:1032000002F25A6011E00B4BFA8802F01F02012112
:1032100001FA02F2C3F88821064BFA8802F01F0275
:10322000012101FA02F29A6000BF1437BD465DF831
:10323000047B704700E100E02DE9F041DFF89C805D
:103240008AB004460D4600F04BF898F9003001337F
:1032500006460F4604D02046294600F03DFB20B923
:10326000304639460AB0BDE8F0812046294600F0D4
:103270002FFB0022164BFEF707FA0028F0D001239F
:10328000144A00931448019200230893CDE90445A1
:10329000CDE9024500F04AFB98F90030022BCDE958
:1032A00006010AD0684600F03FFB30B1089B4BB9DD
:1032B000DDE906010AB0BDE8F08100F03DFB212305
:1032C0000360F3E700F038FB089B0360F0E700BF02
:1032D0000000F03FC8390000CC3900002400FF1F77
:1032E0002DE9F04FAE4B21F00048984587B00446D9
:1032F0000D460F4611DD08F1404808F5801858EAE0
:10330000000820D002460B46FDF77EFA02460B4627
:10331000FDF758FD07B0BDE8F08FA24B984529DCBA
:10332000B8F1795F80F2698181A3D3E90023FDF7C9
:103330006DFA00229C4BFEF7A7F9D8B1204629462A
:1033400007B0BDE8F08F7CA3D3E90023FDF710FCA4
:103350007BA3D3E9002306460F4620462946FDF706
:1033600007FC02460B4630463946FDF74FFA07B0D8
:10337000BDE8F08F2046294600F0AAFA02460B4627
:1033800000208949FDF740FA0022884BFDF7F0FB49
:103390006DA3D3E9002304460D46FDF7E9FB6CA3BA
:1033A000D3E90023FDF732FA22462B46FDF7E0FB76
:1033B00069A3D3E90023FDF727FA22462B46FDF740
:1033C000D7FB67A3D3E90023FDF720FA22462B465B
:1033D000FDF7CEFB64A3D3E90023FDF715FA2246DF
:1033E0002B46FDF7C5FB62A3D3E90023FDF70EFAD8
:1033F00022462B46FDF7BCFB5FA3D3E90023CDE9B2
:10340000000120462946FDF7B3FB5DA3D3E9002365
:10341000FDF7FAF922462B46FDF7AAFB5AA3D3E99A
:103420000023FDF7F3F922462B46FDF7A1FB58A335
:10343000D3E90023FDF7E8F922462B46FDF798FB78
:10344000594B0022FDF7E2F9CDE902012046294659
:1034500000F07EF9564B984582468B4600F3AA80D1
:1034600002460B46FDF7D2F9DDE90223CDE904015E
:10347000DDE90001FDF7A6FC02460B46DDE904018B
:10348000FDF776FB4FF00008CDE9000142465B46B0
:1034900040465946FDF76CFB02460B46204629463E
:1034A000FDF7B2F9424604460D465B465046594682
:1034B000FDF7ACF902460B4620462946FDF782FC93
:1034C00002460B46FDF7A2F902460B461CA1D1E9C4
:1034D0000001FDF799F902460B46DDE90001FDF711
:1034E00093F9424604460D465B4640465946FDF771
:1034F0008DF902460B4628A1D1E90001FDF784F9B8
:1035000002460B4620462946FDF77EF902460B4649
:1035100021A1D1E90001FDF777F902460B46002F02
:1035200040F3DE801046194607B0BDE8F08F00BFBB
:103530009C7500883CE4377E182D4454FB21F93FEC
:10354000075C143326A6913C09F7FD0DE13D023FCF
:1035500088B20175E0EF493F3B8F68B52882A43FF0
:103560005544880E55C1C93F7D6FEB0312D6D43F39
:10357000555555555555C53F82922EB1C5B8B33FE7
:1035800059018D1B6C06E63FC88A599CE52A00400C
:103590004B2D8A1C273A0340182D4454FB21E93F48
:1035A000FFFFEF3FFFFFDF3F0000F03F0000E03F85
:1035B0003233EF3FDDE90223DDE90001FDF702FCD4
:1035C00002460B4650465946FDF7D2FA52465B4634
:1035D000FDF71CF902460B46FDF718F942A3D3E9A3
:1035E0000023FDF711F902460B4641A1D1E9000184
:1035F000FDF70AF902460B4691E702460B46FDF736
:10360000B7FA3DA3D3E9002306460F46FDF7B0FA0B
:103610003BA3D3E90023FDF7F9F832463B46FDF71B
:10362000A7FA39A3D3E90023FDF7EEF832463B466B
:10363000FDF79EFA36A3D3E90023FDF7E7F83246FB
:103640003B46FDF795FA34A3D3E90023FDF7DCF8F8
:1036500032463B46FDF78CFA31A3D3E90023FDF750
:10366000D5F832463B46FDF783FA2FA3D3E9002372
:103670008046894630463946FDF77AFA2CA3D3E9CD
:103680000023FDF7C1F832463B46FDF771FA2AA345
:10369000D3E90023FDF7BAF832463B46FDF768FA56
:1036A00027A3D3E90023FDF7AFF832463B46FDF7E9
:1036B0005FFA0022244BFDF7A9F802460B4640466C
:1036C0004946FDF77FFB02460B4620462946FDF79B
:1036D0004FFA22462B46FDF799F807B0BDE8F08F68
:1036E000104603F1004115E6075C143326A6913C11
:1036F000182D4454FB21F93F09F7FD0DE13D023F30
:1037000088B20175E0EF493F3B8F68B52882A43F3E
:103710005544880E55C1C93F7D6FEB0312D6D43F87
:10372000555555555555C53F82922EB1C5B8B33F35
:1037300059018D1B6C06E63FC88A599CE52A00405A
:103740004B2D8A1C273A03400000F03FAFF3008066
:1037500021F0004C2DE9F8434FEA1C5CDFF86C8146
:103760004FEA0C5CC44506460F460B46024600F085
:103770008F8000296FDD0F1578D0A7F2FF37C3F3D4
:103780001303F90743F4801360D4D10F4FF0000CFA
:1037900001EB43037F105200654616204FF40011E1
:1037A0006C189C424FEAD2764FEA420202DC1B1BA5
:1037B00065188C44013806EB43034FEA5101EFD101
:1037C000804620264FF0004109E023D0D40F013E6F
:1037D0004FEA510104EB43034FEA42021ED0AB42D1
:1037E00001EB0804F1DD04F00049B9F1004F04EBEE
:1037F000010809D0A9465B1B944288BF03F1FF333F
:10380000121B08444D46E1E7B8F1000FF2DB05F169
:103810000109F0E79442E6D91D46D7E71A4304D0E0
:10382000431C41D000F00103184446084FEA6C03E2
:103830001CF0010F03F17F5303F5001318BF46F08E
:10384000004603EB07513046BDE8F883D10F01EB8A
:103850004303520099E721F00043034322D051BBB8
:103860000F46D30A153F5205002BFAD013F48011EE
:103870001DD15B00D80201F10101FAD5C1F10100AF
:10388000C1F1200422FA04F4234307448A4074E778
:1038900002460B46FDF76CF932463B46FCF7B6FF95
:1038A000BDE8F883BDE8F8830CF1010CBEE72024E5
:1038B00001200021E6E702460B46FCF7A5FF024681
:1038C0000B46FDF77FFABDE8F88300BF0000F07FEC
:1038D00021F00041704700BF31F0004310B408D020
:1038E0000F4AA3F5801494420AD804205DF8044BD3
:1038F000704700280CBF022003205DF8044B70477E
:10390000B3F5801F01D20320F7E7064A934201D0A6
:103910000020F2E7D0F1010038BF0020EDE700BF42
:10392000FFFFDF7F0000F07F00207047002001498B
:10393000704700BF0000F87F014B1868704700BF58
:103940008800FF1F08B5074B044613B10021AFF3F1
:103950000080054B1868836A03B19847204600F041
:103960000DF800BF00000000D439000002440346F7
:10397000934202D003F8011BFAE77047FEE700BF4D
:1039800000A0064000B0064000C0064000D006403F
:1039900000A00E4000B00E402D2F3133353700000F
:1039A0000090044000A0044000B0044000C0044067
:1039B00000D0044000F00F4040F00F4080F00F4076
:1039C000C0F00F4000F10F406173696E000000000D
:0839D000430000002800FF1F66
:1039D800DC0F4940DC0F49400000803F0000000038
:1039E800000000000000803F00800340009003407A
:1039F80000800B40010000000000000000000000F3
:103A080000000000000000000000000000000000AE
:103A18000000000000000000D03900000000000095
:103A2800000000000000000000000000000000008E
:103A3800000000000000000000000000000000007E
:103A4800000000000000000000000000000000006E
:0C3A580000000000000000002800FF1F1C
:103A6400D83900000000FF1F8C000000643A0000F9
:103A74000000002000000000000000000000000022
:043A8400000000003E
:0400000300002D5973
:00000001FF
